:020000040800F2
:1000000058EF0020A50300084B620008054F0008C8
:1000100049620008FD14000815680008000000008F
:10002000000000000000000000000000B102000815
:1000300089150008000000000D0300081564000881
:10004000BF030008BF030008BF030008BF03000888
:10005000BF030008BF030008BF030008BF03000878
:10006000BF030008BF030008BF030008BF03000868
:10007000BF030008BF030008BF030008BF03000858
:10008000BF030008BF030008BF030008BF03000848
:10009000BF030008BF030008BF030008BF03000838
:1000A000BF030008BF030008BF030008BF03000828
:1000B000BF030008BF030008BF030008BF03000818
:1000C000BF030008154F0008094F0008BF030008D0
:1000D000BF030008FD670008BF03000809680008A7
:1000E000BF030008BF030008BF030008FD64000849
:1000F000BF030008BF030008BF030008BF030008D8
:10010000BF030008BF030008BF030008BF030008C7
:10011000BF030008BF030008BF030008F164000824
:1001200001150008BF030008BF030008BF03000853
:10013000BF03000825160008BF030008BF0300081E
:10014000BF030008BF030008BF030008BF03000887
:10015000BF030008BF030008BF030008BF03000877
:100160002D4F0008214F0008BF030008BF030008FF
:10017000BF030008BF030008BF0300080000000021
:10018000BF030008BF030008BF030008BF03000847
:10019000BF030008BF030008BF030008796200081E
:1001A000BF030008BF030008BF03000800F002F807
:1001B00000F06EF80AA090E8000C82448344AAF193
:1001C0000107DA4501D100F063F8AFF2090EBAE891
:1001D0000F0013F0010F18BFFB1A43F0010318477B
:1001E00094240100B42401000A444FF0000C10F8DC
:1001F000013B13F0070408BF10F8014B1D1108BFA5
:1002000010F8015B641E05D010F8016B641E01F844
:10021000016BF9D113F0080F1EBF10F8014BAD1C94
:100220000C1B09D16D1E58BF01F801CBFAD505E0B2
:1002300014F8016B01F8016B6D1EF9D59142D6D30C
:10024000704700000023002400250026103A28BF34
:1002500078C1FBD8520728BF30C148BF0B60704738
:10026000642900F0A181732900F04B8300207047BE
:100270001FB512F03FF89DE8030000F09FFE00F06C
:10028000E4F900F0A7FB1FBD10B500F00CFC10BD99
:1002900000F06FFC1146FFF7EBFF08F097FD00F050
:1002A0005FFE03B4FFF7F0FF03BC01F001F80000AC
:1002B0002C4B19680868B0E8F04F80F30988BFF349
:1002C0006F8F4FF0000080F311887047000000002E
:1002D00008480068006880F308884FF0000080F349
:1002E000148862B661B6BFF34F8FBFF36F8F00DF24
:1002F00000BF00BF08ED00E0DFF80C00016841F42A
:1003000070010160704700BF88ED00E0EFF30980E5
:10031000BFF36F8F134B1A681EF0100F08BF20ED4C
:10032000108A20E9F04F106009B44FF0500080F3BC
:100330001188BFF34F8FBFF36F8F11F057F84FF055
:10034000000080F3118809BC19680868B0E8F04F14
:100350001EF0100F08BFB0EC108A80F30988BFF3BD
:100360006F8F70476C000020EFF30580704700002E
:100370000B49D1F800C04A685CF8043B1068184487
:1003800042F8040B8C4528BFA1F1DC0C8A4228BF3F
:10039000A1F1DC02C1F800C04A6020F000407047C3
:1003A000F4CD00200948804709480047FEE7FEE7F2
:1003B000FEE7FEE7FEE7FEE7FEE7FEE7FEE7FEE715
:1003C00004480549054A064B70470000E1640008EF
:1003D000AD01000858CF002058EF002058DF002062
:1003E00058DF002053EA020C00F069802DE9F04B41
:1003F0004FF00006002B1FBFB3FA83F503FA05F494
:1004000024FA05F65E4012BF1643B2FA82F502FAEC
:1004100005F4C5F120051EBF22FA05FC44EA0C04D0
:10042000203556EA044C4FEA144418BF641C4FF0C0
:1004300000084FF00009904271EB030C39D30029FA
:1004400019BFB1FA81F701FA07F6B0FA80F700FA9E
:1004500007F6C7F120071EBF20FA07FC46EA0C0684
:100460002037B6FBF4FCA7EB0507103F07F01F0B86
:10047000CBF120060CFA0BFB2CFA06F644BFB34670
:100480000026202FA4BF5E464FF0000B5BEA060C4F
:1004900008BF4FF0010B19EB0B09ABFB027C48EBDB
:1004A0000608C01B06FB02CC0BFB03CC71EB0C0156
:1004B000C1E70B46024641464846BDE8F08B13B5FE
:1004C0004FF000004FF00001AFF30080BDE81C408A
:1004D000704700000FB4044910B503AA029800F059
:1004E00015FA10BC5DF814FB50CE00202DE9F04148
:1004F0000E460446002020622046E168884730B35B
:10050000252805D0D4E901219047206A401CF2E754
:10051000E168204600278847050018D0A5F1410072
:10052000192802D820354FF4006732462946204664
:100530002760FFF795FE40B1012804D0F61D26F094
:1005400007060836D8E7361DD6E72846DAE7206AD8
:10055000BDE8F08170B50C460546012A05D0287823
:10056000800600D5EA69002302E0012305E05B1C58
:10057000934202D2E05C0028F9D1A869E618C01ABB
:10058000A861286A184428622846AFF3008004E076
:10059000D5E9012114F8010B9047B442F8D328465D
:1005A000AFF3008070BD00002DE9F0410646002445
:1005B00010687529314616A510D0AFF300800028C9
:1005C00002DA404213A507E031688A0701D512A577
:1005D00002E0490704D511A5012401E0AFF3008032
:1005E00000210A2206F1240709E0B0FBF2FCB0FB6F
:1005F000F2F302FB1C00303078541846491C0028E6
:10060000F3D123462A463046BDE8F04100F00EB94A
:10061000000000002D0000002B0000002000000062
:100620000B4910B5A1F17C020A4CC2E937123721FF
:1006300006E000EB104342F82130074B00FB03407B
:100640000B1EA1F10101F4DC10BD0120E8E7000060
:1006500094CD0020E119D666CD0D010040EA0103DA
:1006600010B59B070FD1042A0DD310C808C9121F5B
:100670009C42F8D020BA19BA884201D9012010BD95
:100680004FF0FF3010BD1AB1D30703D0521C07E062
:10069000002010BD10F8013B11F8014B1B1B07D1C6
:1006A00010F8013B11F8014B1B1B01D1921EF1D137
:1006B000184610BD10B5431C02E010F8011B71B1C3
:1006C0008107FAD14FF0013202C88C1A8C4314EA28
:1006D000C211F9D0C01A0A0603D0C01E10BDC01A3C
:1006E00010BD0A0401D0801E10BD0902FCD0401EBE
:1006F00010BD032A40F2308010F0030C00F015808A
:1007000011F8013BBCF1020F624498BF11F801CB14
:1007100000F8013B38BF11F8013BA2F1040298BF79
:1007200000F801CB38BF00F8013B11F0030300F0E3
:10073000FF80083AC0F0088051F8043B083A51F8AD
:1007400004CBA0E80810F5E7121D5CBF51F8043B8C
:1007500040F8043BAFF30080D20724BF11F8013BFF
:1007600011F801CB48BF11F8012B24BF00F8013B61
:1007700000F801CB48BF00F8012B704702F0FF03DF
:1007800043EA032242EA024200F002B84FF00002BC
:100790000429C0F0128010F0030C00F01B80CCF193
:1007A000040CBCF1020F18BF00F8012BA8BF20F801
:1007B000022BA1EB0C0100F00DB85FEAC17C24BF55
:1007C00000F8012B00F8012B48BF00F8012B7047FF
:1007D0004FF0000200B5134694469646203922BFDA
:1007E000A0E80C50A0E80C50B1F12001BFF4F7AF25
:1007F000090728BFA0E80C5048BF0CC05DF804EB07
:10080000890028BF40F8042B08BF704748BF20F874
:10081000022B11F0804F18BF00F8012B7047704772
:100820007047704700487047F8CE00202DE9F04728
:100830000D4699469246044600F124080168880650
:1008400004D5E06921F01001216000E00120A842F8
:1008500001DD471B00E00027A1697A1902EB0900BE
:10086000081AA0612078C00602D42046AFF30080A9
:10087000002608E0D4E901211AF806009047206A12
:10088000401C761C20624E45F4DB2078C0060AD559
:100890002046AFF3008006E0D4E9012130209047E4
:1008A000206A401C2062381EA7F10107F4DC07E033
:1008B000D4E9012118F805009047206A401C206205
:1008C000281EA5F10105F3DC2046AFF30080207857
:1008D000000602D50220BDE8F0870120FBE710B535
:1008E000436913B1AFF3008001E0FFF733FE01204D
:1008F00010BD127800F124010A7000224A70012212
:10090000EDE711684FF0FF32E9E70000074B70B5E3
:100910000D467B4400F047F80446284600F056F8A0
:1009200010B14FF0FF3070BD204670BD1B6F00004E
:1009300010B5203AC0F00B80B1E81850203AA0E87A
:100940001850B1E81850A0E81850BFF4F5AF5FEAAE
:10095000027C24BFB1E81850A0E8185044BF18C961
:1009600018C0BDE810405FEA827C24BF51F8043B08
:1009700040F8043B08BF7047D20728BF31F8023B5C
:1009800048BF11F8012B28BF20F8023B48BF00F8F0
:10099000012B704700487047F8CE002001694A1CBF
:1009A00002610878704700B58FB0CDE901310021B0
:1009B000059105497944CDE9031011466846FFF7D2
:1009C00095FD0FB000BD0000E5FFFFFF007B00F0CC
:1009D0008000704710B542485421FFF7F9FE4148A6
:1009E0005421FFF7F5FE40485421FFF7F1FE3F493F
:1009F0003B483C4A3F4B08603D490A603A49196010
:100A0000531C0365481C1065012008653B48344AA7
:100A100039A1784400F008FA20B9384878440A38F7
:100A200000F0A7FA37482F4A35A1784400F0FCF9C6
:100A300020B9344878440A3800F09BFA32482A4AF0
:100A40002FA1784400F0F0F920B92F4878440A38F3
:100A500000F08FFA40232248DC000021224600F0FB
:100A6000BFF920B125487844543800F082FA1D4877
:100A700022464023002100F0B3F920B121487844F8
:100A8000543800F076FA184822461023002100F06E
:100A9000A7F9002806D01C487844BDE81040563815
:100AA00000F067BA10BD104870B5006D20F0010469
:100AB0000B4800F02FFA0B4800F02CFA0A4800F01F
:100AC00029FA09E0206D20F00105204600F022FA05
:100AD000204600F073F82C46002CF3D170BD0000C6
:100AE000FCCD002050CE0020A4CE0020AC01002080
:100AF000B0010020B401002072000000061B0100BC
:100B000077000000F21A0100DE1A01000EB5CDE9EF
:100B10000001FFF7CFFD029069460120ABBE0EBD7C
:100B200008B5694600900220ABBE08BD1FB58DE830
:100B3000070069460520ABBE04B010BD1FB58DE8A7
:100B40000F0069460620ABBEF6E708B5694600907F
:100B50000920ABBE08BD1CB5CDE9000169460A20DD
:100B6000ABBE1CBD704708B5694600900C20ABBEFB
:100B700008BD7546FFF70EFFAE46050069465346B1
:100B800020F00700854618B020B5FFF719FCBDE836
:100B900020404FF000064FF000074FF000084FF0E4
:100BA000000B21F00701AC46ACE8C009ACE8C00975
:100BB000ACE8C009ACE8C0098D46704770B5044682
:100BC000051F00F0DFF90068002C14BF446870BDF9
:100BD000002C18BFAC423CBF20466468F8D30168C3
:100BE0000A18AA4218BF456003D12A680546114475
:100BF000016028684119A1421CBF6C6070BD61682A
:100C0000696021680844286070BD2DE9F0470546F9
:100C10000C46C86820F4201040F48000C8608006AC
:100C200002D5084600F0FBFAE06841F282014FF07D
:100C3000FF390140022903D0204600F099FAB5E0BF
:100C400000F42041B1F5004F0FD1C00306D5616813
:100C5000E06A884200D80846606006E02069E062E9
:100C600060606069FFF77FFFA061A0680022EEB2BC
:100C700000280DDAE1688B050AD4C043A06041F476
:100C800090302260E0606068411C61600670A5E001
:100C9000E0689046226040F40050E060206968BB44
:100CA0006069FFF752FF012704F12405A0B1A08974
:100CB00010F4407F08D0E06900F0AFF9206118B16E
:100CC000E06840F4006016E0E7612561E06820F428
:100CD000407040F480600EE0E06900F09EF900286A
:100CE0002061F1D0E06840F4006010F4407FE060E3
:100CF00002D140F48070E06020696060E06825699E
:100D00006FF0010AC1051FD56168E06A884200D80A
:100D10000846411B04D02246284600F033FAF0BBB7
:100D2000E068010203D5E562C4E9015854E0691C9A
:100D3000E1626160E16940F48030491EC4E902105B
:100D400030462E70BDE8F087010202D500F48032F3
:100D50000AE06068411C61600670E0680A2E40F499
:100D60008030E06006D00022E16A6068814203D9E9
:100D70000B4602E00122F7E70346A7895B1B7F05CC
:100D800003D4E7699F4200DDE2B1814200D8014609
:100D9000E5620F1AC4E90158002B09DD00E005E007
:100DA00022461946284600F0EDF908B14846C9E741
:100DB00047B1A069E5626560C01BA061E06840F0D2
:100DC0001000E060E068000208D56168A069E56293
:100DD000491B08446560A0615046B3E73046B1E75F
:100DE00070B5C468A50713D0650211D4B2F5807F31
:100DF00009D0B2F5007F06D0B2F5806F08D101238B
:100E000000F1240106E05D1E6FF07F46B54201D37C
:100E1000012070BD0161C361416024F47061114320
:100E2000C160002070BD00002DE9F0410C4607466E
:100E30001646104600F06EF82078611C61280AD032
:100E4000722802D077283CD102E00125002405E079
:100E50000225042402E0082448F2020511F8010BDF
:100E60002B2806D0622809D011F8010C74280AD06A
:100E70000BE045F0030544F00204EFE745F00405FC
:100E800044F00104EAE744F0100438462146FFF735
:100E90003DFE411C15D00021316171604FF400719D
:100EA000F560F1617061200704D53046022200210F
:100EB00000F0E2F8306D40F0010030653046BDE8EA
:100EC000F0810020FBE72DE9F0410D460646104C6D
:100ED000206DC10704D0410804D020F00104F7E7D9
:100EE00022460EE0542000F098F807000ED0206D46
:100EF00047F001010843542120653846FFF768FC9C
:100F00003A4629463046BDE8F0418DE70020D6E755
:100F1000FCCD00202DE9F04704464FF000094FF0CA
:100F2000FF37C568D4E90486A80707D0204600F03B
:100F300053F93046FFF7F4FD002802DA3846BDE8E1
:100F4000F087280502D54046FFF738FE4C212046A1
:100F5000FFF73EFC206D20F0010020654846EEE7DB
:100F600010B50446AFF300802046BDE81040FFF7FF
:100F700098B910B500F07AF9BDE8104000F070B9EA
:100F8000704700000048704700CF0020704770474E
:100F90007047704738B504460A4600206946AFF3EB
:100FA0000080002808BF38BD02460099204600F0A6
:100FB0008CF9012038BD012000F072B9F8B5AFF30B
:100FC0000080054600200C46102000BF0646A819E8
:100FD000A0420DD9324669460020AFF300800700D9
:100FE00008BF00F05DF90098A04218BF0546C4197B
:100FF000FFF7C8FF05600746F01D20F007004619FF
:10100000284600F05BF9B44208BFF8BDA21B314688
:101010003868BDE8F84000F058B970B50646FFF7EB
:10102000B1FF056806F10B0020F00704B4429CBF35
:10103000002070BD2B466A68BAB11068A04210D378
:1010400004F1080188423CBF5068586007D35168DA
:10105000101941601168091B016058601460101D6F
:1010600070BD13465268002AE7D121462846FFF793
:1010700091FF0028DED170BD2DE9F04104461646EF
:101080000D464769007B80072ED03846FFF75DFD8F
:1010900050BB3EB3012E02D0022E25D104E02046E3
:1010A00000F02DF905441DE03846FFF75CFDE168CE
:1010B000002841F01001E16005DA204600F058F800
:1010C0000120BDE8F081C9030BD56268E16A914255
:1010D00000D81146A26911442269891A814200DDB3
:1010E00008460544002D01DA0220EAE7E16A60685B
:1010F000E268814206D29103E06203D522F4003116
:1011000041F01002A6690027AE4213DCE16A814279
:1011100001D90B4600E0034603EB060C2369ACEB58
:10112000030CAC4506DD814201D98C4600E08446C3
:101130009C4505D1A760276042F02000A5620DE024
:10114000AD1BE669AE1B8142A66000D90846C01AF5
:10115000281A20605819606022F0200003490840D6
:10116000E060002084F84870ABE70000BFCFD7FFF5
:10117000C16821F4001141F08001C160002181604B
:10118000016070472DE9F047814614460E464FF046
:10119000FF383248D5685769054209D03846A169F9
:1011A000FFF7D9FC002811DB2C48C0430540E5605F
:1011B0002B46324649463846FFF7B8FCA16920F075
:1011C0000042B21A11440028A16103D02046FFF763
:1011D000CFFF4046BDE8F08770B504460569C06A98
:1011E0006168884200D80846E16821F42011E16076
:1011F000C90312D5A84208D02246411B2846FFF752
:10120000C1FF10B14FF0FF3070BD0020E562C4E9AE
:101210000150E06820F48030E060002070BD10B51F
:101220000446C06820F02000E060A16AA0698842FE
:101230000DD02046FFF7D0FFE06820F4405040F08A
:101240001000E060A06AA0612069E062606044F282
:101250004001E0688843E06010BD0000100002001B
:10126000002801D000F024B87047000010B50146F6
:1012700002A000F065F8012010BD0000534947525C
:10128000545245443A2052656469726563743A2049
:1012900063616E2774206F70656E3A200000000055
:1012A00010B500F067F8BDE81040FFF7D9BF0000A7
:1012B00001491820ABBEFEE72600020000210160B4
:1012C000C0E90110704710207047034640688C4603
:1012D000002818BF88423CBF03464068F8D318680E
:1012E0001844884207D00CF1030020F00700001DCD
:1012F000411A521A0146081D0A60FFF75FBC10B57B
:101300000146C268900703D0900607D5886A0AE0B4
:10131000FFF788FA01210160881E10BD8B694868BB
:1013200018440B69C01A91F848301BB191F8491064
:10133000401A10BD1103FCD50028FADD401E10BD77
:1013400070B505460C460A2000E06D1C00F03AF826
:1013500035B128780028F8D102E0641C00F032F89A
:1013600014B120780028F8D1BDE870400A2000F0C0
:1013700029B8000010B5012805D0002103A0FFF70F
:10138000DFFF012010BD09A1F8E7000053494752D3
:10139000544D454D3A204F7574206F662068656145
:1013A00070206D656D6F7279000000003A2048650D
:1013B0006170206D656D6F727920636F72727570E8
:1013C0007465640008B569468DF800000320ABBE63
:1013D00008BD0000464910B54A6822F440324A6010
:1013E0004A6843681A434A6001684A6822F4807276
:1013F0004A6001684A68036942EA03224A60016858
:101400004A6822F040724A6001684A6883681A4359
:101410004A6001688A6822F400628A6001688A680A
:10142000C3681A438A60816A6FF07062D1420168B2
:101430008A6822F070628A6001688A680CD0836AC8
:101440001A438A6001688A6822F040528A60016803
:101450008A68C36A1A4301E022F040528A60016838
:101460008A6822F002028A6001688A68037E42EA82
:1014700043028A6090F82010002901684A680FD062
:1014800042F400624A6001684A6822F460424A609D
:1014900001684A68174C436A04EB43331A4301E07E
:1014A00022F400624A600168CA6A22F47002CA62C9
:1014B0000168CA6A838B104C04EB03531A43CA6257
:1014C00001688A6822F400728A6001688A6890F86C
:1014D000303042EA43228A6001688A6822F48062DE
:1014E0008A6001688A68406942EA8020886010BD8D
:1014F0000023014000E0FFFF0000F0FFFEE70000D6
:10150000014800F009BF00005806002001681823B8
:10151000CAB2103AB2FBF3F2054B6FF30901032A8A
:101520009B5CC36500D9091D8165084670470000B2
:10153000C023010810B5014600208B698A6A4FF06C
:10154000C07453B1B3F5005F15D072B1012A0CD04D
:10155000022A0AD0032A09D104E01AB1012A06D0CE
:10156000022A03D1C96AC90100D5012010BDC96A88
:10157000A142FAD010BD002AF7D0012AF2D0022AE7
:10158000F3D0032AF3D010BD70470000F0B500235C
:101590001A464FF0004544F2F85600BF016903EBCC
:1015A000830401EBC4010A604A608A60CA600A626F
:1015B0000D604A624E604F6827F000474F6000EBB5
:1015C0008307032BB96406D24FF0280C07690CEB94
:1015D000C4043C4400E00469CC605B1C042BDDD3F4
:1015E000C26502668266C26682650169006800F5AE
:1015F0008050C160F0BD38B50446006800F58050E9
:10160000816941F480118161206800F58050806912
:101610000090012000F0BAFF2068009900F580508A
:10162000816138BD014801F043B80000C451002079
:1016300070B5A4B00024012506468DF828408DF829
:1016400004501494A8038DF8564005908DF810505E
:1016500002948DF85440C0108DF811508DF81F4041
:101660008DF8204006908DF81E508DF80F4009949B
:101670008DF81C4012948DF84C408DF85540694609
:10168000304600F05DF98DF881508DF880408DF87E
:10169000824028041B908DF8685080011F908DF8BF
:1016A00070508DF8885040128DF871501E941D9026
:1016B0008DF87250239421948DF8895019A93046E1
:1016C000199400F0DDF824B070BD0020704701F0DF
:1016D00099BD000010B5024801F084FA002010BD49
:1016E000C451002013460A4610B50146034801F0D4
:1016F000CFF9002801D04FF0FF3010BDC4510020B9
:1017000013460A4610B50146034801F0CFFB0028F6
:1017100001D04FF0FF3010BDC45100202DE9F0433F
:10172000836A1830914650F823208D681C4617684C
:101730000026002F6FDB00EB83077F69C7BBD5F85E
:1017400000C00127C2F808C0D2F804C0D5F8048050
:101750006FF30C0C4CEA080CC2F804C091F800C0FE
:101760005FEACC7C09D0D2F800C0D1F814802CF408
:10177000400C4CEA080CC2F800C091F800C05FEAC7
:101780008C6C09D5D2F800C0D1F810802CF0406CD8
:101790004CEA080CC2F800C00978490703D5116863
:1017A00041F080011160116841F08051116042E008
:1017B00031E0116821F0005111601168B9F1000F9A
:1017C00002D041F0804101E021F0804111605B1CBA
:1017D000042B00D31B1F50F82320116821F08051E7
:1017E00011601168002903DB00EB83014969A9B18D
:1017F00050F8242000210CE0BFF35F8F136823F022
:1018000000431360641C042C00D3241F491C50F8AF
:101810002420B942F0D30220BDE8F083AD682968E6
:1018200091605168D5F804C06FF30C0141EA0C01D6
:101830005160761C7F1CBFF35F8F116841F000413F
:101840001160A9680029B4D11168B9F1000F02D064
:1018500041F0804101E021F080411160116841F0C8
:101860000051116000EB8302416A5161036172B65D
:10187000761C816A3144816262B60020CCE70000A8
:1018800070B50C460168054601F5805188692B4A00
:101890001040227BEAB30022637B920642EA436255
:1018A000637FBBB35FF0000342EA0352A37B42EACB
:1018B000435263691A43237F42EAC312A37F42EA79
:1018C0008312236A1A4394F8243042EA83020243C3
:1018D0008A61286800F580508669012000F056FE74
:1018E000286800F580508661A169A06822790843C4
:1018F000216941EA4261084394F8251040EAC11089
:10190000A16A40EA81002168084340F40001286888
:1019100001E00FE010E000F580500160286800F55C
:1019200080500468012000F031FE286800F58050E6
:10193000046070BD0122AFE70123B5E7233FDEF865
:1019400070B5026805460C4610683A49237C084089
:10195000A168002B63D0002341EAC351637C002BB4
:101960005FD00023E67F9B0543EA06431943636982
:101970001943A37FF3B3002341EA4331237F41EAB4
:101980000331A3691943237941EA832194F8203074
:101990008BB3002341EA4321E37B41EAC311636A2D
:1019A000194394F8283041EA031101431160286873
:1019B0000668012000F0EAFD286806602A68906940
:1019C0004FF641710840A36C216D41EA034194F840
:1019D0004C3063B3002394F85560DB01012E00D036
:1019E000002643EAC603194394F85630012B00D071
:1019F000002301E017E018E041EA830194F8543035
:101A0000012B00D0002341EA430101439161286882
:101A10008469012000F0BAFD2868846170BD01234B
:101A20009AE701239EE70123A6E70123B2E70123FA
:101A3000D1E700000F8120FF2DE9F8434FF00009A6
:101A4000CDF80090856E044600EB85004FF001084C
:101A5000866CE76E1EE0306A30B9684601F076F8B1
:101A6000009838B33062B060B8F1000F12D0A06DAA
:101A700018B344F2F8507060BFF35F8F306840F0E5
:101A8000004030606D1C042D00D32D1F04EB850039
:101A90007F1E866C17B1B8F1000FDCD1E06EB84242
:101AA00006D0206800F58050C0F80890C4E91A57A5
:101AB000BDE8F8834FF00008ECE70148DBE70000E1
:101AC000F845008072B6FEE7F0B5D1E907354C6AFB
:101AD0000A68C2B102682B4322F4F842144323433C
:101AE0000360D1E901231A43D1E9033423431A43A4
:101AF0004B6989691A430A4341686FF30E010A432F
:101B000042600020F0BDD1E901263243D1E90367EC
:101B10003E4332434E69896932430A431A432A439A
:101B2000016822436FF30E010A430260E9E70000F7
:101B3000F0B56FF00F058C8A2E014FEA054ECB6889
:101B40002F034FF07F4C0EEB04540AB31A03A2F597
:101B50008052836822431D4C23401A438260D1E99E
:101B6000002305EB0313521E1A438B6806EB032375
:101B70001A430B8A097E07EB03431A430CEB0161FE
:101B80000A43C16801F070410A43C2600020F0BD01
:101B9000D1E9002E05EB0E15521E2A438D6806EB87
:101BA00005252A430A4D05EB03331A430B8A097EA8
:101BB00007EB03431A4322430CEB01610A4381689C
:101BC00001F070410A438260E0E70000FF0F0FFF61
:101BD00000F0FFFF70B590F83C206A4D012A19D043
:101BE000012280F83C200A6807230468092A13D9D7
:101BF000E6680A3A02EB420293409E43E6600A78A6
:101C00008B680A3A02EB420293400268D46823438D
:101C1000D36010E0022070BD266902EB42029340BF
:101C20009E4326610B788A6803EB43039A4003685E
:101C30001C6922431A610268936B23F44013936377
:101C40000268936B0C8A504E06EB04542343936353
:101C50000A790B7CD21AD21C02EB82021F2393401A
:101C60000268946B9C4394630A790B7CD21AD21C51
:101C700002EB82030A8892B29A4003689C6B22436B
:101C80009A638A69AA420268936823F47023936076
:101C9000026893680CD08C69234393600268936850
:101CA00023F44013936002689368CC69234301E0F6
:101CB00023F4401393604A7D002A0268536802D0DF
:101CC00043F4806301E023F4806353600A7D002ABB
:101CD0000268536802D043F4805301E023F4805338
:101CE00053604A68012A16D0022A1FD0032A0268CC
:101CF00027D0136A6FF30B0313620268136ACC6870
:101D000023431362224B0468204A9C4227D10C686B
:101D1000122C20D023E0026853696FF30B03536148
:101D200002685369CC6823435361EBE70268936907
:101D30006FF30B03936102689369CC68234393614B
:101D4000E0E7D3696FF30B03D3610268D369CC6812
:101D50002343D361D6E7546844F480045460046894
:101D60009C420AD10968A1F18053123B01D011298C
:101D700003D1516841F400015160002180F83C100A
:101D8000084670BD01000F000000F0FF0023014075
:101D90000020014078B50024009490F83C20012AEE
:101DA00019D0012280F83C200A6807230568092A17
:101DB00013D9EE680A3A02EB420293409E43EE606A
:101DC0000B788A680A3B03EB43039A400368DD689B
:101DD0002A43DA6010E0022078BD2E6902EB42024D
:101DE00093409E432E610B788A6803EB43039A402D
:101DF00003681D692A431A614A681F23072A13D200
:101E000005686E6B521E02EB820293409E436E6326
:101E10000A8893B20A79521E02EB8202934002684A
:101E2000556B2B43536327E005680D2A12D22E6BA6
:101E3000D21F02EB820293409E432E630B790A88E5
:101E4000DB1F92B203EB83039A4003681D6B2A43A6
:101E50001A6311E0EE6A0D3A02EB820293409E4350
:101E6000EE620B790A880D3B92B203EB83039A4032
:101E70000368DD6A2A43DA621B4B0568194A9D42F2
:101E80000AD10D68122D07D1556825F4000555605B
:101E9000556845F48005556005689D421DD1134D78
:101EA0000B68AB4201D0112B17D1536823F4800388
:101EB0005360536843F4000353600968A9420CD18E
:101EC0000B490C4A0968B1FBF2F101EB81014900B1
:101ED00000E0491E00910029FBD180F83C40002021
:101EE00078BD0000002301400020014012000010D6
:101EF0006800002040420F0070B504004FF000055C
:101F000003D0206C002610B107E0012070BD2046F0
:101F100000F01CF8666484F83C60206CC00610D4A5
:101F2000206C20F4885040F0020020642046FFF727
:101F300051FA6664206C20F0020040F00100206439
:101F400000E0012584F83C60284670BD70B586B07D
:101F5000064614216846FEF73BFC24493068884257
:101F600041D123480025016841F480710160006877
:101F70001F4900F4807014390590086840F0010092
:101F80000860086800F001000590086840F0020051
:101F900008600868032400F00200059048208DE8DE
:101FA00031006946134801F00DF802208DE8310038
:101FB0006946114801F006F8114C1048C4E90005C3
:101FC0000015A560C4E90350400060618000C4E9C9
:101FD000060525622046656200F06EFA08B1FFF73B
:101FE00071FDB463A66306B070BD0000002001401F
:101FF00044380240000002400004024010640240E5
:102000005806002070B5040003D094F8200010B1E9
:1020100004E0012070BD204600F082F820680168CD
:1020200041F00101016001F0EDF80546052604E0EC
:1020300001F0E8F8401B0A2811D820684068C00762
:10204000F6D02068016821F00201016001F0DAF8A1
:1020500005460BE001F0D6F8401B0A2806D9606A55
:1020600040F40030606284F82060D2E72068406865
:102070008007EFD4207E0128206801683DD021F040
:1020800080010160607E01282068016838D021F05D
:1020900040010160A07E01282068016833D021F052
:1020A00020010160E07E0128206801682ED041F007
:1020B00010010160207F01282068016829D021F0EB
:1020C00008010160607F01282068016824D021F0A8
:1020D00004010160D4E902010843D4E90412114368
:1020E00008436168491E08432168C8610020606296
:1020F000012084F82000002070BD41F08001C0E77D
:1021000041F04001C5E741F02001CAE721F010018C
:10211000CFE741F00801D4E741F00401D9E700001E
:1021200010B586B0044614216846FEF751FB1449E9
:102130002068884221D113480021026842F00072D1
:102140000260006800F0007005900E4810380268C8
:1021500042F001020260006800F0010005904FF4B7
:10216000C05000900220CDE9010103200390092016
:1021700004906946044800F025FF06B010BD000039
:1021800000640040403802400000024070B54379CE
:10219000012B1CD0012646710223037105682B68B0
:1021A00002F0100440F6FE72A2409343D1E90021F0
:1021B0000A43A2401A432A6001680A68C023A34068
:1021C0009A430A60067100214171084670BD0220E1
:1021D00070BD70B5040003D02079002510B105E072
:1021E000012070BD6571204600F008F802202071C2
:1021F000256101202071002070BD000010B586B05F
:10220000044614216846FEF7E3FA11492068884223
:102210001CD110480021026842F0005202600068A0
:1022200000F0005005900B481038026842F001029F
:102230000260006800F0010005903020009003204B
:10224000CDE901016946044800F0BCFE06B010BDAE
:102250000074004040380240000002402DE9F04187
:102260000446876D00F0CEFF064694F83500002541
:10227000022806D08020606584F834500120BDE833
:10228000F0812068016821F0160101602068416931
:1022900021F080014161206C08B9A06C20B1206858
:1022A000016821F0080101602068016821F0010146
:1022B00001600CE000F0A6FF801B052807D9202054
:1022C0006065032084F8350084F83450D7E720682F
:1022D0000068C007EED194F85C103F208840B860D9
:1022E000012084F8350084F834500020C7E790F8C6
:1022F0003510022903D08021416501207047052156
:1023000080F835100068016821F0010101600020AB
:10231000704790F8350070472DE9F84304464FF0B8
:102320000009CDF8009063484FF41651A56D006880
:10233000B0FBF1F72E6894F85C10082000FA01F168
:1023400031420FD021680A6852070BD50A6822F083
:1023500004020A6094F85C108840A860606D40F048
:102360000100606594F85C104FF0010808FA01F074
:10237000304208D021684969090604D5A860606D1B
:1023800040F00200606594F85C1004208840304200
:1023900008D021680968890704D5A860606D40F0FD
:1023A0000400606594F85C1010208840304218D01A
:1023B00021680968090714D5A860206801684903E5
:1023C00004D50068000308D5A16C07E00168C905C1
:1023D00003D4016821F008010160216C09B1204695
:1023E000884794F85C1020208840304231D0216822
:1023F0000968C9062DD5A86094F83500052820681D
:10240000016806D0490347D5006800031DD4616CFC
:102410001CE021F0160101602068416921F0800173
:102420004161206C08B9A06C20B12068016821F0DE
:102430000801016094F85C103F208840A86084F88F
:10244000358084F83490216D1FE0E16B09B120469E
:102450008847606D00282BD0606DC00714D0052020
:1024600084F835002068016821F0010101600098BE
:10247000401C0090B84203D820680068C007F6D11D
:1024800084F8358084F83490E16C002910D001B0D4
:102490002046BDE8F04308470168C905D5D4016866
:1024A00021F01001016084F8358084F83490CCE785
:1024B000BDE8F883680000202DE9F041044600F0F3
:1024C000A1FE06465CB1022084F83500002584F8A0
:1024D00034502068016821F0010101600DE0012005
:1024E000BDE8F08100F08EFE801B052805D9202074
:1024F0006065032084F83500F2E720680068C007B3
:10250000F0D12268116820480140D4E90103184342
:10251000D4E903363343184363691843A369184366
:10252000E3691843236A18430843616A042903D105
:10253000D4E90B1319430843106020684069666AA8
:1025400020F0070130460E43012704280CD1A06A71
:102550000643E06A40B12046FEF7ECFF20B1402080
:10256000606584F83570BAE7206846612046FEF75A
:10257000CDFF94F85C203F2191408160656584F82F
:1025800035700020ACE700003F8010F070B50446C5
:1025900000F038FE0546601C02D004480078044470
:1025A00000F030FE401BA042FAD370BD5C0000205A
:1025B00010B500F00BF8000605D503484068BDE8EB
:1025C000104007F0CBBE10BD20000020D0F88C00DA
:1025D000704700296AD002681268C2F3001281F8BD
:1025E00028200268126802F060024A6202681268DB
:1025F00042F34022521C81F8202002681268C2F384
:102600000042CA770268126842F34032521C8A774D
:1026100002681268C2F300320A770268126802F494
:1026200000628A610268126802F480424A610268AC
:10263000126842F38052521C4A740268126842F3D4
:10264000C052521C0A7402681268C2F3C012CA73E4
:102650000268126802F460228A6002681268C2F39B
:1026600080220A7102689269C2F3400281F8542004
:102670000268926942F3C012521C81F84C20026831
:10268000926902F030020A6502689269120C8A644B
:1026900002689269C2F3800281F85620006880695E
:1026A000C0F3C00081F8550000207047012070473A
:1026B00010B50446006800F580504169490607D509
:1026C000C169490604D52B494161204600F062FAF0
:1026D000206800F580504169C90708D0C169C90761
:1026E00005D04FF001114161204600F0D5FB206874
:1026F00000F580504169090422D5C16909041FD53C
:10270000D4F8881041F00801C4F8881041698904A0
:102710000CD54169184A1140C4F88C10C16921F4E4
:10272000C031C161E020C4F8840006E0426948F28B
:1027300080610A40C4F88C2041612046FFF738FFD1
:102740002068816B09070AD5C06A00F06000C4F8F0
:102750009400204600F024F90020C4F894000748B3
:102760000168090305D54FF400210160204600F0FF
:102770009BFB10BD4000010000207E00143C014086
:10278000F8B5040003D0D4F8840010B107E00120AC
:10279000F8BD2320C4F88400204600F079F83948B9
:1027A0000025016841F480410160006800F4804028
:1027B00000903548016821F4000101600168A268B9
:1027C000114301600068206800F58050016841F005
:1027D0000101016000F016FD06464FF4FA770BE0A8
:1027E00000F010FD801BB84206D90420C4F8880010
:1027F000E020C4F88400CAE7206800F58050006833
:10280000C007EDD12046FEF713FF0021E06801EB81
:10281000810200EBC200056045608560C56004EB85
:1028200081039861036843F480130360032905D290
:102830002826E36806EBC2021A4400E0E268C260A0
:10284000026842F440020260491C0429DED3A562FA
:102850002068E16800F5805001612046FEF796FE91
:1028600060680A4982880A640278D0F8010042EA66
:1028700000204864C4F888501020C4F88400002068
:10288000F8BD000044380240043801400080024096
:10289000F0B587B0044614216846FDF799FF3A4920
:1028A000206888426DD139480024016841F00071E8
:1028B0000160016801F000710591016841F08061DB
:1028C0000160016801F080610591016841F00061DB
:1028D0000160016801F000610591016841F040016B
:1028E0000160016801F040010591016841F00201B9
:1028F0000160016801F002010591016841F00401E5
:102900000160016801F004010591016841F00101D5
:1029100001600068022500F0010005904FF400609E
:10292000CDE9000502AA03260B2782E8D0006946FC
:10293000174800F047FB3003CDE9000502AA6946BD
:1029400082E8D000134800F03DFB3220CDE90005BD
:1029500002AA694682E8D0000F4800F033FB8620C7
:10296000CDE9000502AA694682E8D0000B4800F0D4
:1029700029FB002205213D2000F0E8FF3D2000F06A
:10298000D7FF07B0F0BD00000080024030380240A1
:10299000001802400004024000080240000002400B
:1029A00070472DE9F84F4FF000075FEA0109044630
:1029B000B84604D0D4F8840023285ED105E054F84A
:1029C000880F40F00100206057E0E66D4FF0000BEB
:1029D00004EB8600856CE06EC0F1040A3AE02868DA
:1029E000C00503D5A869A067E86960672868800505
:1029F00001D4E06F30B32868800503D5C4F860B017
:102A0000C4F864B0606900902868C00508D52868DB
:102A1000C0F30D40001F009028684FF001082067A8
:102A2000AA682A62009804F1800183B2081F00F0AE
:102A3000B7F8206E401C2066616E009808446066FE
:102A4000C5F820B0761C042E00D3361F04EB860098
:102A50007F1C856C2868002804DB574502D2B8F13A
:102A6000000FBCD0E06EC019E06602D02046FEF731
:102A7000E3FFE665B8F1010F02D00120BDE8F88F51
:102A8000E16FC9F800100020C4F87CB0F6E7000040
:102A90002DE9F041984603680546186900F01C04CA
:102AA0004FF6FF7000EAC1204FF4F861204301EABD
:102AB0008211014321F0020040F001041C6100F08A
:102AC000A1FB06464FF480370AE000BF00F09AFBF6
:102AD000801BB84202D30120BDE8F0812868046958
:102AE000E007F3D12868406981B20020C8F80010DF
:102AF000F2E700002DE9F04700F118058046D5E91E
:102B00000A64012718E000BF05EB8409761ED9F896
:102B10001400B8B1D8F80C1004EB840251F832104C
:102B200000290CDB00F0BEF90021641C04F0030452
:102B3000C9F81410C5E90A640EB1002FE4D10020D1
:102B4000BDE8F087641C04F00304F5E71CB50446F7
:102B50000D4806F07BFE03000FD003F1200020603B
:102B60000A4818614FF4C0612068CDE900010021D6
:102B70004122084607F04CFE1CBD054901200870A3
:102B8000002020601CBD0000B423010885AE0008B1
:102B9000200000200148406807F0E0BB2000002032
:102BA00010B5002442F8204D1481538104681CB1F3
:102BB0000C6822600A6004E00260FBE701891944A6
:102BC000018100680028F9D110BD10B519B1D0F805
:102BD0008420102A01D0012010BDFEF7B1FE002094
:102BE00010BD000070B505460068006920F01C04A7
:102BF00001F0FAF81049114A0144914202D244F01E
:102C0000080416E00E490F4A0144914202D244F0F2
:102C10000C040EE00C490D4A0144914209D30C49C1
:102C200008440C49884202D244F0040401E044F014
:102C300010042868046170BD00D3CEFEC0E1E4003A
:102C400040F1E9FD40787D0100796CFC005A620298
:102C5000001F0AFA80F0FA0270B50446D0F884002A
:102C6000102801D0012070BD2325C4F88450042011
:102C7000E0662046FEF7E0FE2068016841F00801AA
:102C80000160206806680120FFF780FC206806606C
:102C90002068016841F00401016020680668012095
:102CA000FFF774FC206806602046FEF7A4FC20684D
:102CB00000F58050816941F400518161206800F580
:102CC0008050816941F002018161C4F88450002084
:102CD00070BD000070B50446D0F88400102801D003
:102CE000012070BD2325C4F884500120A065206810
:102CF000C16B41F40271C1632068D0F80C11224A03
:102D00001143C0F80C112068D0F8101141F40311E0
:102D1000C0F810110420E0662046FEF78DFE206802
:102D2000016841F008010160206806680120FFF792
:102D30002DFC206806602068016841F004010160F4
:102D4000206806680120FFF721FC20680660204605
:102D5000FEF751FC206800F58050816941F4005174
:102D60008161206800F58050816941F00201816134
:102D7000206800F58050C169044A1143C161C4F85C
:102D80008450002070BD000060000200C1A001005E
:102D900070B50446D0F88400232801D0012070BD0E
:102DA0002320C4F88400206800F58050C1691F4AC0
:102DB0001140C161206800F58050816921F4005103
:102DC0008161206800F58050816921F002018161F4
:102DD0002068016821F00401016020680568012075
:102DE000FFF7D4FB206805602046FEF704FC20684E
:102DF000016821F008010160206805680120FFF7E3
:102E0000C5FB20680560002004EB8001896C4A68DE
:102E100042F000424A60401C0428F5D30020A0651F
:102E20001020C4F88400002070BD00003E5FFEFF4B
:102E300010B5044621B1D4F88400232805D010E051
:102E400054F8880F40F001000AE0486BE06301226B
:102E50002046FEF763FC30B154F8880F40F00200C2
:102E60002060012010BDBFF34F8FA06A401CA062FC
:102E7000042801D3001FA062206800F5805041693A
:102E8000490706D5042141612068002100F58050E2
:102E90004160002010BD00000148806807F05EBA64
:102EA0002000002007F03CBF704700002DE9F041F2
:102EB00006680546306900F01C044FF6FF7000EA12
:102EC000C1204FF4F861204301EA8211014398B216
:102ED00041F0030470612868046100F093F906462C
:102EE0004FF480370AE000BF00F08CF9801BB84235
:102EF00002D30120BDE8F08128680469E007F3D11E
:102F0000F8E70000F0B587B014216846FDF760FCD3
:102F100025480168002944D101210160234800248B
:102F2000016841F0010101600068022500F0010024
:102F300005904FF68370CDE9000502AA03260C2701
:102F400082E8D00069461A4800F03CF84CF2FB7069
:102F5000CDE9000502AA694682E8D000154800F0D4
:102F600031F848F23730CDE9000502AA694682E817
:102F7000D000114800F026F84FF63F00CDE90005DB
:102F800002AA694682E8D0000C4800F01BF80D2028
:102F9000CDE9000502AA694682E8D000084800F0A1
:102FA00011F807B0F0BD00001400002038380240CE
:102FB00000100240000C02400018024000140240C1
:102FC000000802402DE9F84FDFF8F8A100220124A3
:102FD00003254FF00F090AF1040BAAF1040E00BFFC
:102FE0000B6804FA02F63340B34270D10F7907F050
:102FF0000307012F01D0022F16D187684FEA42083C
:1030000005FA08FC27EA0C07D1F80CC00CFA08FCFA
:103010004CEA070CC0F808C04768B7430E79C6F3FE
:10302000001696403E4346600E79F643B6070AD036
:10303000C7684FEA420C05FA0CF6B7438E6806FAE9
:103040000CF63E43C6600E7906F00306022E10D140
:10305000D60800EB8608D8F8206057074FEAD76CEF
:1030600009FA0CF7BE430F6907FA0CF73743C8F8A3
:10307000207006684FEA420C05FA0CF7BE430F7940
:1030800007F0030707FA0CF7374307604E6816F49A
:10309000403F1CD04C4E376847F480473760366855
:1030A00022F0030706F480460096484E07EB060C14
:1030B000DCF8086897073F0F09FA07F826EA0806C0
:1030C000DFF80C81404503D14FF0000841E072E089
:1030D000DFF80081404502D14FF0010839E0DFF808
:1030E000F880404502D14FF0020832E0DFF8EC8072
:1030F000404502D14FF003082BE0DFF8E480404563
:1031000002D14FF0040824E0DFF8D880404502D116
:103110004FF005081DE0DFF8D080404502D14FF0A8
:10312000060816E0DFF8C480404502D14FF00708DA
:103130000FE0DFF8BC80404502D14FF0080808E0FE
:10314000DFF8B080404502D14FF0090801E04FF0B0
:103150000A0808FA07F848EA0608CCF80888DAF8F6
:1031600000605746D1F804C09E435FEACC2C00D5DE
:103170001E433E60DBF800605F46D1F804C09E430A
:103180005FEA8C2C00D51E433E60DEF80060774677
:10319000D1F804C09E435FEA8C3C00D51E433E60DC
:1031A000084F083F3E68D1F804C09E435FEACC3C1C
:1031B00000D51E433E60521C102AFFF411AFBDE83B
:1031C000F88F0000083C01404438024000300140C4
:1031D000000002400004024000080240000C0240CF
:1031E000001002400014024000180240001C02407F
:1031F00000200240002402400AB1816170470904A6
:10320000FBE7000001488068704700005C00002078
:1032100090F83D20202A01D002207047242280F817
:103220003D200268136823F0010313600268536AAB
:1032300023F0100353620268536A0B435362016820
:103240000A6842F001020A60202180F83D10002047
:10325000704790F83D20202A01D002207047242298
:1032600080F83D200268136823F0010313600368AF
:103270005A6A22F00F020A4391B2596201680A6841
:1032800042F001020A60202180F83D1000207047C2
:10329000704770472DE9F041016804464A694E685D
:1032A00090F83E000025D743FA0506D4F243D20534
:1032B00003D46FF4807201254A61B90508D4F14343
:1032C000C90505D422686FF4007145F0020551610B
:1032D000790525D4F143C90522D4638D94F83D10B6
:1032E000226B202808D13BB9212910D029290ED0E2
:1032F000282901D1212A0AD022686FF48061516106
:1033000045F00405102806D0402804D008E02046E7
:1033100002F0DEF904E02068016841F40071016008
:10332000380508D4F043C00505D421686FF4006067
:1033300045F008054861002D07D0206C2843206423
:103340002046BDE8F04101F055BEBDE8F0812DE911
:10335000F047026800215368C66A90F83E4090F832
:103360003D50102C12D0402C10D0046C002C7DD07D
:103370005469E443A6077AD4DE43B60577D4036CD8
:1033800003B19169BDE8F04702F07EB997695169D0
:103390004FF42A0CC9435FEAC1784FF02A4904D0A0
:1033A00066452AD04E4528D010E0DE43B6050DD440
:1033B000C16A614501D1012103E0C16A494501D1DA
:1033C0000821C162BDE8F04702F0C8B80E0716D464
:1033D000DE43B60513D4416CC9B21161416B09B12A
:1033E000C96B29B9816B002907D0C96B002904D0AA
:1033F0000068416841F400614160BDE8F0878E07D4
:1034000006D4DE43B60503D4BDE8F04702F01AB88F
:10341000FE43526876074FEA02521DD4002AECDBC5
:103420000A0608D4DA43520505D4490705D5BDE894
:10343000F04701F0ABBF4907DFD4D9438905DCD49D
:10344000212D05D0402CD8D1BDE8F04702F0CCB8F2
:10345000BDE8F04701F058BF002ACEDB4A060BD486
:10346000DA43520508D4490708D501E00DE00EE023
:10347000BDE8F04701F0D4BE4907BED4D943890561
:10348000BBD4BDE8F04701F061BE916970E7E10689
:1034900006D4D943890503D4BDE8F04702F05AB9F0
:1034A0002821212D27D0292D25D0650655D4DD438F
:1034B0006D0552D4640752D590F83D30448D002CF0
:1034C0009BD01269446A2270426A521C4262428D49
:1034D000521E4285428D002A8FD12A2B8DD102683F
:1034E000536823F4806353602222026380F83D1006
:1034F00000F0A4F981E7250623D4DD436D0520D42F
:10350000640720D590F83D30448D002CF2D0446AF9
:1035100024781461426A521C4262428D521E4285D6
:10352000428D002AE6D1292BE4D10268536823F4A6
:10353000806353602122026380F83D1000F07FF920
:103540005BE76107D6D4D9438905D3D4418D0029DF
:10355000D0D0416A097811610AE06107CAD4D94321
:103560008905C7D4418D0029C4D01169426A117000
:10357000416A491C4162418D491E41853DE77047C2
:1035800070B5040025D094F83D00002520B984F8DA
:103590003C50204600F0BEF8242084F83D0020680E
:1035A000016821F0010101602068016841F40041D7
:1035B00001602068016821F40041016000F01AFCFC
:1035C0004D4A6168914201D84C4900E04C4988421B
:1035D00001D2012070BD4B492368B0FBF1F15E6858
:1035E00026F03F060E435E606368934206D94FF4AF
:1035F000967359434FF47A73B1FBF3F12368491C76
:103600001E6A26F03F06314319626168914210D864
:103610004900401EB0FBF1F2521CC2F30B02042A17
:1036200001D2042022E0B0FBF1F0401CC0F30B00FB
:103630001CE0A268F2B301EBC10303EB0116431EC9
:10364000B3FBF6F35B1C43F480431B0549D092B3F4
:1036500001EBC10202EB0111401EB0FBF1F0401C76
:10366000C0F30B0040F4804040F400402168CA6978
:103670004CF6FF739A431043C861D4E90710014325
:103680002068026822F0C00211430160D4E90301FE
:1036900001432068826848F2FF339A4311438160F6
:1036A000D4E9050108432168CA6822F0FF021043EB
:1036B000C86001E00EE016E02068016841F00101F9
:1036C00001602564202084F83D00256384F83E5085
:1036D000002070BD01EB4106431EB3FBF6F35B1CFB
:1036E000B3E70120C2E701EB4101401EB0FBF1F05E
:1036F000401CC0F30B00B7E7A086010080841E00C9
:1037000000093D0040420F00704770477047704706
:10371000704700002DE9F04186B004461421684648
:10372000FDF756F83F4A2168DFF8FC8000243E4848
:1037300012250326042708F1100891422BD10168B5
:1037400041F080010160006802AA00F0800005904D
:103750003020CDE9000582E8D00069463348FFF704
:1037600031FCD8F8001041F48001C8F80010D8F8F6
:103770000000002200F4800005900521212000F0C7
:10378000E5F8212000F0D4F800220521222000F0E5
:10379000DDF8222040E0264A91423FD1016841F005
:1037A00004010160016801F004010591016841F024
:1037B000010101600068694600F0010005905015A4
:1037C000CDE9000502AA1B4882E8D000FFF7FAFB0A
:1037D0004FF48070CDE9000502AA694682E8D00066
:1037E0001548FFF7EFFBD8F8001041F40001C8F8C6
:1037F0000010D8F80000002200F400000590052118
:10380000482000F0A3F8482000F092F8002205219B
:10381000492000F09BF8492000F08AF806B0BDE886
:10382000F08100000058004030380240001C024087
:10383000005C0040000802400000024070477047F2
:103840000248816802781144816070475C00002062
:103850000B4810B5016841F400710160016841F442
:1038600080610160016841F480710160032000F013
:103870008DF80F2000F006F800F03EF8002010BD93
:10388000003C024010B5014688B000222B2000F019
:103890005DF82B2000F04CF813480024016841F03B
:1038A00040010160006805A900F0400006906846EC
:1038B00000F07AFA00F09EFA0C494000B0FBF1F1FA
:1038C0000C480B4A491E026040F2E732C0E903246B
:1038D000C0E9011400F0F6FF10B1012008B010BDDE
:1038E000044801F03BF8F9E74038024040420F003D
:1038F00000180040B80600200C4882B0016841F46E
:1039000080410160006800F4804000900748001F7B
:10391000016841F0805101600068002200F0805091
:1039200000900F21901E02B000F010B84438024001
:10393000002809DB00F01F020121914040098000AE
:1039400000F1E020C0F8001170470000F0B40E4B09
:103950001B680C46C3F30223C3F10705042D00D9ED
:103960000425191D072901D2002300E0DB1E0126D2
:1039700006FA05F1491E214099409E40761E1640E8
:103980003143F0BC02F047BF0CED00E0064900F007
:10399000070208684FF6FF03184040EA0220034A76
:1039A00010430860704700000CED00E00000FA05CD
:1039B0002DE9F8431748016841F080510160006823
:1039C000154F00F08050012600903E64FFF71AFC6E
:1039D00005464FF47A78114C05E000BFFFF712FC62
:1039E000401B40450DD86068C003F7D57E64FFF7E3
:1039F00009FC0546464607E0FFF704FC401BB042C1
:103A000002D90320BDE8F88360688003F4D5002064
:103A1000F8E700004038024000000E42007000400D
:103A20002DE9F84F04460068DFF824A2894F8A4D3B
:103A3000C1074FF001084FF0000603D1810701D400
:103A4000400648D5CAF86860FFF7DCFB814605E010
:103A5000FFF7D8FBA0EB090002287DD828680001F9
:103A6000F6D42078C1077D4805D06168227A8901A3
:103A700041EA027101602178890711D50168626805
:103A8000237B9201C1F3027142EA036242EA0171AF
:103A900001603968E26921F01F01521E114339604B
:103AA0002178490608D56168227B890141EA0261D3
:103AB000227A41EA02710160CAF86880FFF7A2FB2E
:103AC000814605E0FFF79EFBA0EB0900022843D8E2
:103AD00028680001F6D52068410701D400074ED5BB
:103AE000CAF87060FFF78EFB814605E0FFF78AFB9E
:103AF000A0EB090002282FD82868C0438000F5D524
:103B000020784107564814D501682269237D920127
:103B1000C1F3027142EA036242EA0171016039684D
:103B2000226A6FF0FF0321F4F85103EB02221143E4
:103B300039602178090712D501682269C1F3036150
:103B4000920142EA0161227E41EA02710160386815
:103B5000616A20F4403000E051E008433860CAF860
:103B60007080FFF74FFB074605E000BFFFF74AFBF9
:103B7000C01B022843D82868C0438000F6D42078B0
:103B8000800653D534484030016841F080510160CF
:103B90000068344D00F080500090286840F4807038
:103BA0002860FFF72FFB074605E000BFFFF72AFB61
:103BB000C01B022823D82868C005F7D5274D143D1F
:103BC000286810F4407020D0218D01F440718142AA
:103BD0001BD0286820F440712348C0F8008006609C
:103BE00029602868C00710D0FFF70CFB064641F299
:103BF000883707E0FFF706FB801BB84202D9032095
:103C0000BDE8F88F28688007F4D5A16A1248C1F38F
:103C100001220830032A13D0016821F4F811016051
:103C20002868218DC1F30B01084328602078C00665
:103C300004D50E4994F82C00C1F8E0010020DFE71C
:103C400002680B4B22F4F81219400A430260E7E7BE
:103C5000000047428C38024000380240843802405D
:103C60008838024000700040400E47420010474232
:103C7000FFFCFF0F2DE9F0470E46050065D0DFF889
:103C80001481D8F80000F7B200F00F00B04207D25C
:103C900088F80070D8F8000000F00F00B04254D14E
:103CA00028683D4C810712D5400703D5206840F4B1
:103CB000E05020602878000703D5206840F4604079
:103CC00020602068A96820F0F00008432060287870
:103CD000C0072DD0304968680839012812D0022861
:103CE00013D0032811D00968890700292DDA21682B
:103CF00021F0030101432160FFF784FA814641F27C
:103D0000883A0EE009688903EFE709688901ECE762
:103D1000FFF778FAA0EB0901514502D90320BDE86D
:103D2000F0872068696800F00C00B0EB810FEFD1DC
:103D3000D8F80010404601F00F01B14207D90770D2
:103D4000006800F00F00B04201D00120E7E72878BA
:103D5000400705D52068E96820F4E050084320605A
:103D60002878000706D52068296920F4604040EAD9
:103D7000C100206000F05EF82168084AC1F3031119
:103D8000515CC8400649086006480068FFF77AFDA4
:103D90000020C4E7003C024008380240C823010864
:103DA00068000020600000200F2202600C4A1368A7
:103DB00003F003034360136803F0F00383601368A8
:103DC00003F4E053C36012684FF4E05303EAD202F5
:103DD00002610448006800F00F00086070470000AE
:103DE00008380240003C024001480068704700006B
:103DF000680000200448054900680968044AC1F3C6
:103E00008221515CC8407047680000200838024099
:103E1000D82301080448054900680968044AC1F329
:103E20004231515CC84070476800002008380240A9
:103E3000D8230108154810B5006810F00C0214488A
:103E400013D01449042A0FD0082A0ED10F4C241F76
:103E50002268236802F03F025B0207D52068C0F3A6
:103E60008810A0FB010106E0084610BD2168C1F3DF
:103E70008811A1FB00010023FCF7B4FA2168C1F30B
:103E80000141491C4900B0FBF1F010BD0838024067
:103E90000024F40040787D012DE9F84F04006ED035
:103EA0002078DFF84C93C007A9F104054AD009F146
:103EB00004000168C1F38101012908D00068C0F342
:103EC000810002280AD1D9F80000400206D52868EE
:103ED000800337D560680028E1D033E06068B0F532
:103EE000803F10D0B0F5A02F286810D020F480308B
:103EF0002860286820F4802028606068A8B1FFF757
:103F000081F906460DE0286840F48030F4E740F47B
:103F100080202860F7E700BFFFF774F9801B642852
:103F200073D828688003F7D50CE0FFF76BF90646D5
:103F300005E000BFFFF766F9801B6428F0D8286809
:103F40008003F7D42078DFF8AC8280074FF0000AB6
:103F50003ED5A748001D016811F00C0F08D000687D
:103F6000C0F3810002280BD1D9F80000400207D429
:103F70002868800716D5E068012800D112E033E1F7
:103F8000E068B8B10120C8F80000FFF73BF9064629
:103F900005E000BFFFF736F9801B0228C0D828686B
:103FA0008007F7D52868216920F0F80040EAC100B1
:103FB00028600DE0C8F800A0FFF724F9064604E0E9
:103FC000FFF720F9801B02281FD828688007F7D444
:103FD0002078000722D5864F87486169703771B114
:103FE00001210160FFF70EF9064604E0FFF70AF928
:103FF000801B022809D838688007F7D50EE0C0F882
:1040000000A0FFF7FFF8064605E082E0FFF7FAF8A8
:10401000801B02287DD838688007F7D420784007B5
:1040200068D5DFF8CCB100270BF13C0BDBF80000C2
:10403000C0000BD4DBF8001041F08051CBF8001029
:10404000DBF80000012700F0805000906B4E3068D4
:10405000C00510D4306840F480703060FFF7D2F8AB
:10406000009005E0FFF7CEF80099401A022850D8DA
:104070003068C005F6D55E4EA0686C3601280FD0BA
:104080000528306810D020F001003060306820F042
:1040900004003060A068B8B1FFF7B4F800900FE0FA
:1040A000306840F00100F4E740F004003060F7E7CA
:1040B000FFF7A8F80099411A41F28830814266D88A
:1040C00030688007F4D50EE0FFF79CF8009007E019
:1040D000FFF798F80099411A41F28830814256D88A
:1040E00030688007F4D42FB1DBF8001021F0805144
:1040F000CBF80010A069C8B33D49091D0968C1F398
:10410000810102294AD00228504607D0C8F8600031
:1041100000E03CE0FFF776F804463BE04746C8F88D
:104120006000FFF76FF8064605E000BFFFF76AF88A
:10413000801B02282BD828688001F7D4D4E9070116
:104140000843A16A2E4A490802EB0141626A41EA2A
:104150008211084394F82C1040EA0161C9F800105C
:1041600001203866FFF74EF8044606E03EE000BF47
:10417000FFF748F8001B022809D828688001F7D506
:1041800034E000BFFFF73EF8001B022802D90320ED
:10419000BDE8F88F28688001F4D427E00128F7D023
:1041A000D9F80000E26900F4800191421CD1226A32
:1041B00000F03F01914217D147F6C071626A014099
:1041C000B1EB821F10D1A26A4FF0FF3300F44031EF
:1041D00003EB5202B1EB024F06D194F82C1000F021
:1041E0007060B0EB016F01D00120D1E70020CFE774
:1041F0000438024000004742800E474200700040F1
:104200000000FFFF2DE9F041044690F880000025F2
:10421000012811D0012684F8806020680168890394
:104220002FD5016821F400310160206FA8B194F806
:104230008110122903D010E00220BDE8F081FEF7C2
:104240000DF850B1206F406D802806D0D4F884005E
:10425000012540F08000C4F88400606F88B194F8B4
:10426000811022290DD1FDF7F9FF50B1606F406D2B
:10427000802806D0D4F88400012540F08000C4F8DE
:1042800084002068002707612168781E8861204625
:1042900002F032F82068416841F00801416084F87A
:1042A000816084F880702846C7E770472DE9F041A7
:1042B000044690F88100002868D0206842690169AE
:1042C0000568130706D50B0704D52046E16FBDE846
:1042D000F0410847D3074FF001060FD0CB070DD0B0
:1042E000866194F88100222806D00220D4F8841038
:1042F0000143C4F8841062E00120F7E7930709D571
:104300008B0707D502218161A06F00283ED0BDE850
:10431000F04100472C4B970615D58F0613D5202169
:104320008161D4F8840040F0040016E00365206F3A
:1043300001E00365606FBDE8F041FDF7D8BF20469E
:10434000FFF760FF3BE057060CD54F060AD540212A
:104350008161D4F8840040F00800C4F88400A80308
:104360000ED4ECE757071ED54F071CD504218161F9
:10437000D4F8840040F02000C4F88400A80307D5D6
:10438000206F0028D2D1606F0028D2D1BDE8F08123
:104390002168002008612268411E916184F88160D3
:1043A000A4F86E000BE0D206F0D5C906EED51021B8
:1043B0008161D4F8840040F01000C4F884002046E5
:1043C000FFF773FFE2E70000B562000870B5040074
:1043D0004FF0000504D094F88100002610B106E0EB
:1043E000012070BD84F88060204600F0A5F802200E
:1043F00084F88100204601F07FFF204601F04AFF4B
:10440000206AD0B1204601F097FF216A00EB8000BE
:1044100040004902B0FBF1F00A22B0FBF2F1B0FB20
:10442000F2F302FB13006162082801D9491C6162A2
:10443000606B042801D14808606260684FF4007125
:1044400070B102280CD0206C012800D00021A06897
:1044500078B1012808D0022809D0032809D106E044
:10446000206C0128F2D0F2E74FF4806501E04FF4B0
:104470000065206802682E4B1A400260626B60681B
:104480001043D4E90E231A4310430843A16A28437A
:1044900008432169084361690843A18C40EA01513E
:1044A0002068026811430160206841684EF20F02E3
:1044B0009143416021684868A2691043D4E90B2305
:1044C0001A4310434860206881681A4A114081608D
:1044D000E16C606D626C0843216D521E114308430C
:1044E000A16C6FF0FF0202EB0121084321688B6889
:1044F000184388602068C1684FF220031940C160EA
:10450000D4E916010843216E02EB0121B4F86420BE
:1045100041EA024108432168CA681043C860C4F8F0
:104520008460012084F8810084F88060002070BDE0
:1045300010C005FF0080F8FF2DE9F047074600682E
:1045400029492A4DDFF8A8A02A4C002686B04FF052
:1045500002084FF0060988421ED1A06878B9286881
:1045600040F4800028602868002200F48000059054
:1045700005215720FFF7EAF95720FFF7D9F9A0687E
:104580006946401CA06074200090CDE90186CDE909
:1045900003695046FEF716FD1349386820318842FA
:1045A0001ED1A06878B9286840F480002860286887
:1045B000002200F48000059005215720FFF7C6F97E
:1045C0005720FFF7B5F9A0686946401CA060082095
:1045D0000090CDE90186CDE903695046FEF7F2FC73
:1045E00006B0BDE8F087000004580140443802409E
:1045F000001002401400002070B50D46040003D0E6
:1046000094F82C0010B107E0012070BD002084F860
:104610002D00204600F011F8022084F82C00211D06
:104620002068FDF751FAD4E900022946FDF780FA27
:10463000012084F82C00002070BDFEF763BC70B52B
:10464000040009D0606A002540B125616561A5625A
:1046500094F8510040B10CE0012070BD6068B0F5E5
:10466000827FF4D0E561F2E784F85050204600F0F4
:1046700045F8022084F851002068016821F04001CB
:104680000160A088218900F4827001F4044108438C
:10469000A18901F400610843217C01F00201084373
:1046A000217D01F001010843218B01F400710843D1
:1046B000217F01F03801084394F8201001F08001B7
:1046C0000843218D01F40051084321680860A06966
:1046D000042101EA104094F8241001F0100108436D
:1046E000216848602068C16921F40061C161656585
:1046F000012084F85100002070BD0000F0B587B0A3
:10470000044614216846FCF763F841483F4F25688A
:1047100000213F4A1038022303240526BD4218D148
:10472000156845F480451560126802F480420592D0
:10473000026842F480720260006802AD00F480708A
:10474000059085E852000A20CDE90003694631480A
:104750001CE0314FBD421DD1156845F40045156080
:10476000126802F400420592026842F004020260FC
:104770000068CDE9021400F0040005904FF4E05009
:10478000CDE900030620049069462448FEF71AFC90
:1047900007B0F0BD1E4A224F121DBD4219D1156847
:1047A00045F480151560126802F4801205920268C3
:1047B00042F020020260006802AD00F02000059087
:1047C00085E852004FF46070CDE900036946154852
:1047D000DCE7154FBD42DBD1156845F400151560C7
:1047E000126802F400120592026842F04002026070
:1047F000006802AD00F04000059085E852004FF4DB
:10480000E040CDE9000369460848BFE700380040B2
:104810004038024000200240003C004000080240B6
:1048200000500140001402400054014000180240B2
:104830007047704770B590F83C20012A32D00124AF
:1048400080F83C40022280F83D2003685A689D6849
:1048500022F070060A6832435A60134B02689A428B
:1048600014D0B2F1804F11D0104B9A420ED0104BA1
:104870009A420BD00F4B9A4208D00F4B9A4205D068
:104880000E4B9A4202D00E4B9A4204D1496825F051
:1048900080031943916080F83D40002180F83C106E
:1048A000084670BD022070BD0000014000040040B9
:1048B00000080040000C004000040140004001409E
:1048C0000018004010B5040003D094F83D0010B16A
:1048D00007E0012010BD002084F83C00204600F0D5
:1048E0001FF8022084F83D00211D206801F00CFE15
:1048F000012084F8460084F83E0084F83F0084F8E4
:10490000400084F8410084F8420084F8430084F8B1
:10491000440084F8450084F83D00002010BD0000EC
:1049200008B500680B49884212D10B48016841F074
:10493000200101600068002200F0200000900521A5
:104940003720FFF703F8BDE808403720FEF7F0BF37
:1049500008BD0000001400404038024090F83D10AF
:10496000012901D001207047022180F83D10016823
:10497000CA6842F00102CA6000681149884214D036
:10498000B0F1804F11D00F4988420ED00E498842B5
:104990000BD00E49884208D00D49884205D00D49F8
:1049A000884202D00C49884204D1816801F0070195
:1049B000062903D0016841F0010101600020704721
:1049C000000001400004004000080040000C0040CE
:1049D000000401400040014000180040704770B5DD
:1049E0000446006801694FF00005C943890715D4E2
:1049F000C168C943890711D4E91E016101202077EC
:104A0000206880698007204602D0FFF7E7FF04E0B6
:104A100000F098F8204600F096F8257720680169A4
:104A2000C943490717D4C168C943490713D46FF074
:104A300004010161022020772068806910F4407F22
:104A4000204602D0FFF7CAFF04E000F07BF82046C2
:104A500000F079F8257720680169C943090716D461
:104A6000C168C943090712D46FF00801016104202D
:104A700020772068C0698007204602D0FFF7AEFF8C
:104A800004E000F05FF8204600F05DF8257720682C
:104A90000169C943C90617D4C168C943C90613D4FB
:104AA0006FF010010161082020772068C06910F4C0
:104AB000407F204602D0FFF791FF04E000F042F86B
:104AC000204600F040F8257720680169C943C907EE
:104AD00008D1C168C943C90704D1891E01612046B4
:104AE00000F032F820680169C943090609D4C16899
:104AF000C943090605D46FF0800101612046FFF724
:104B000097FE20680169C943490609D4C168C943B1
:104B1000490605D46FF040010161204600F01EF8FF
:104B200020680169C94389060BD4C168C943890655
:104B300007D46FF0200101612046BDE87040FFF707
:104B400078BE70BD7047704700680349884201D144
:104B5000FEF776BE704700000018004070477047AF
:104B600070470000F8B5016804460868CA684B69D8
:104B700010F00F0F4FF0000559D003F0010602F4BA
:104B80009077374365D0C10705D0D10503D5216C97
:104B900041F001012164410705D5D90703D0216CFB
:104BA00041F002012164810705D5D90703D0216CAA
:104BB00041F004012164010707D502F020013143CF
:104BC00003D0216C41F008012164216C00293AD006
:104BD000800604D5900602D5204601F028FD206805
:104BE0004069216CC0F38010090700D460B32046EF
:104BF00001F0F6FC20684069400621D52068143099
:104C000050E8001F21F0400140E80012002AF5D1D1
:104C1000A06BA8B16C490165A06BFDF768FB00288B
:104C200011D0A06B016D01B0BDE8F04008478306CC
:104C30000FD593060DD52046BDE8F84001F0F7BC2E
:104C40002046FFF78DFFF8BD2046FFF789FF25645A
:104C5000F8BD266B2023012E79D1C60677D5D6065E
:104C600075D50868486800904869400640D5A16B32
:104C7000086840680004000CEAD0A28D8242E7D99F
:104C8000E085C869B0F5807F2DD020680C3050E8F1
:104C9000001F21F4807140E80012002AF5D120683D
:104CA000143050E8001F21F0010140E80012002AF2
:104CB000F5D12068143050E8001F21F0400140E891
:104CC0000012002AF5D184F83E30256320680C30AC
:104CD00050E8001F21F0100140E80012002AF5D131
:104CE000A06BFDF7BBFAA08DE18D401A81B229E0DF
:104CF000A08DE18D401A81B2E08D0028A8D0002956
:104D0000A6D020680C3050E8002F22F4907240E8C2
:104D10000026002EF5D12068143050E8002F22F034
:104D2000010240E80026002EF5D184F83E302563CC
:104D300020680C3050E8002F22F0100240E80023D9
:104D4000002BF5D12046FFF70AFFF8BDFFE7050667
:104D50002BD5150629D594F83D002128F5D1A0685A
:104D6000B0F5805F01D12069B0B1206A411C216299
:104D7000216800784860E08C401E0004000CE0844C
:104D8000E3D12068C16821F08001C1602068C1685A
:104D900041F04001C160D8E7206A0088C0F30800F4
:104DA0004860206A801C2062E5E74006CDD55006A9
:104DB000CBD5CA68204622F04002CA6084F83D3054
:104DC00000F09FF8C1E70000D165000870B504004D
:104DD00004D094F83D00002510B106E0012070BD1C
:104DE00084F83C50204600F023F8242084F83D004D
:104DF0002068C16821F40051C160204601F078FCB0
:104E00002068016921F4904101612068416921F025
:104E10002A0141612068C16841F40051C1602564E4
:104E2000202084F83D0084F83E00002070BD000082
:104E300070B586B0044614216846FBF7C9FC2B4EBA
:104E4000226800212A48022303240725B24222D1E6
:104E5000274A1432166846F010061660126802F0EF
:104E600010020592026842F001020260006802AA84
:104E700000F00100059082E832006002CDE90003F5
:104E800069461C48FEF79EF8002205212520FEF702
:104E90005DFD252025E0184EB24224D1144A10327F
:104EA000166846F480261660126802F48022059285
:104EB000026842F002020260006802AA00F00200EA
:104EC000059082E832004FF44060CDE90003694666
:104ED0000A48FEF777F8002205212720FEF736FD65
:104EE0002720FEF725FD06B070BD00000010014030
:104EF00030380240000002400048004000040240F8
:104F000070477047FEE700000148FEF7C3B9000094
:104F10003C0200200148FEF71ABA00003C020020C3
:104F20000148FEF7B7B90000900200200148FEF7E3
:104F30000EBA00009002002038B5806B002190F876
:104F40003D202B4B46F2A8141B68B3FBF4F3C3EBD4
:104F5000C30303EB830300933BB15B1E0093036821
:104F60001B689B0505D5009BF6E7036C43F0200307
:104F70000364436B03B1D963836B03B1D9630368E3
:104F80001C6824F480641C604185436B03B119657F
:104F9000836B03B1196503681C6824F001041C606D
:104FA00090F83D402023602C0BD0282434EA0202E4
:104FB0000FD080F83D3080F83E1000BFFEF7DFFADA
:104FC00038BD80F83D3080F83E100164FEF760F98E
:104FD00038BD0268136843F0010313600268136868
:104FE00043F480631360016380F83D40E6E700000E
:104FF0006800002070B5044690F83D0094F83E101B
:10500000102901D0402906D1222804D121680A683C
:1050100022F400620A60282131EA00024FF0000504
:105020004FF0200626D021684968090505D460287C
:1050300003D084F83D6084F83E50256320684168C1
:10504000090537D5416821F400614160606B90F833
:1050500035203C49012A11D00165606BFDF747F905
:1050600038B32068016821F00101016084F83D60D7
:10507000606B1CE0256384F83D10DFE7A06B0165E1
:10508000A06BFDF734F9A0B120684169C943490616
:1050900005D40069616A0870606A401C606220681B
:1050A000016821F00101016084F83D60A06B016D91
:1050B000884710E094F83D10602910D04169C94339
:1050C000490605D40069616A0870606A401C606224
:1050D0002046FEF754FA206CC1071CD115E084F875
:1050E0003D6025644169C943490605D40069616A88
:1050F0000870606A401C60622068016821F001014C
:1051000001602046FEF7C4F8E5E7810703D44107B4
:1051100001D4000704D52068416821F4E0614160B2
:1051200094F83D00216C49070BD5282809D1064881
:10513000E062256384F83D6084F83E502046FEF727
:10514000E3FA70BD394F00080000FFFF10B5C26AD6
:10515000438D0168042B06D0438D032B08D0438D6B
:10516000022B1DD012E04A6822F480624A600CE0F3
:105170004B6823F480634B60042A06D0022A04D0D3
:1051800001680A6822F480620A6001680969426A5B
:105190001170416A491C4162418D491E418510BD13
:1051A000012A30D0102A2ED0042A30D0022A2ED044
:1051B0000A6842F400720A6001680969426A117063
:1051C000416A491C4162428D521E42850268126941
:1051D0000A70416A491C4162418D491E418501683E
:1051E0004A6822F440724A60202180F83D1090F80D
:1051F0003E200021402A80F83E100CD0122101638D
:10520000FEF783FA10BD0A6822F48062D3E70A68C9
:1052100042F48062CFE70163FEF779FA10BD000027
:1052200038B590F83D1022290FD1418D03290DD9B1
:1052300001680969426A1170416A491C4162418DE5
:10524000491E4185418D032906D038BDC26A022A14
:1052500002D0012906D029B10068416821F480619B
:10526000416038BD274946F2A81300220968B1FB06
:10527000F3F101EB8101009101682023009C641E81
:10528000009422D00C68A405F8D40C6824F480643F
:105290000C6001684C6824F4E0644C6001680969A2
:1052A000446A2170416A491C4162418D491E418511
:1052B00080F83D3090F83E1080F83E2040291DD007
:1052C00012210163FEF721FA38BD046C44F020047A
:1052D00004644C6824F4E0644C6001680969446A21
:1052E0002170416A491C4162418D491E418580F807
:1052F0003D3080F83E20FEF742F938BD0263FEF7EC
:1053000006FA38BD6800002010B5C26A90F83D105A
:1053100021290BD1418D51B1416A0268097811618F
:10532000416A491C4162418D491E418510BD2023BF
:105330000021082A13D0202A11D012F5803F0ED068
:105340000268546824F4E06454601122026380F817
:105350003E1080F83D3000BFFEF7D8F910BD02685E
:10536000546824F4E06454600268146844F40074DF
:105370001460016380F83D3090F83E2080F83E10C4
:10538000402AE9D1FEF7C4F910BD000010B590F82D
:105390003D1090F83E30C26A048DB4B1212903D08B
:1053A000402B11D122290FD1418DE1B390F83E104D
:1053B000402942D0416A026809781161416A491C5A
:1053C0004162418D491E418510BD2129E8D120232C
:1053D0000021082A13D0202A11D012F5803F0ED0C8
:1053E0000268546824F4E06454601122026380F877
:1053F0003E1080F83D3000BFFEF788F910BD02680E
:10540000546824F4E06454600268146844F400743E
:105410001460016380F83D3090F83E2080F83E1023
:10542000402AE9D100E002E0FEF772F910BD006801
:10543000416821F48061416010BDBDE8104000F07A
:10544000D3B8000078B590F83E50C26A036B90F86C
:105450003D6000240168222E7AD1066D0EB9402DE0
:1054600076D0056D1DB90569B5F5404F09D0458D5C
:1054700005B3468D384D012E0ED0438D022B3AD008
:105480005DE04A698A6900920A6842F480720A60A3
:10549000016D491C016578BDAA4213D10A6822F446
:1054A00080620A6001684A68120503D50A6822F41E
:1054B000806216E04A698A6900920A6842F40072C2
:1054C0000A6039E0082A10D0202A0ED0122B0AD008
:1054D000042A03D0022A01D0102AE7D10A6842F434
:1054E00080620A6024E0012AE0D00A6822F4806227
:1054F0000A600168DEE7042A21D0022A1FD0102AA0
:105500001DD00B6823F480630B6001680B6843F4C3
:1055100000630B6001684B681B0509D5AA4212D0D5
:10552000012A10D0082A0ED0102A0CD0202A0AD026
:1055300001684A6989690091046578BD08E00B68D3
:1055400043F48063E5E74A6842F480524A60EFE73B
:10555000486988690090F0E70000FFFF90F83E106E
:10556000402910D00169B1F5804F19D0016DA9B360
:10557000016D012910D1416C5FF0F10201F440711D
:1055800042EAD11106E0016D0029416C05D0C9B293
:1055900041F0010100680161704701F0FE01F9E787
:1055A00090F83D102129416C09D0C9B241F00101A8
:1055B00002681161416B29B1C96B49B902E001F080
:1055C000FE01F5E7816B0029E6D0C96B0029E3D025
:1055D0000068416841F4006141607047FFE7416C39
:1055E000F02201F44071CBE710B590F83D10026D48
:1055F00022B3026D012A2FD0026D022A1DD1222969
:105600002FD0428D0AB1212933D0428D002A14D1E6
:10561000212912D101684A6822F4E0624A600168D7
:105620000A6842F400720A6000210163202280F8B7
:105630003D2080F83E10FEF76BF810BDC16C0129CB
:10564000816C02D0C1F3072108E00268C9B2116180
:10565000016D891C016510BD816CC9B202681161C0
:1056600004E001680A6842F480720A60016D491C16
:10567000F0E7416A026809781161416A491C416298
:10568000418D491E418510BD38B50C4690F83D202E
:1056900000212825954302680B4605D05169916980
:1056A000009180F83C3038BD556825F48065556020
:1056B000E243540700D50121120601D5828900E09A
:1056C000028B80F83C3092B2FDF7E3FD38BD00005C
:1056D0002DE9F04190F83D40C26A002320261C4F7E
:1056E00001686FF48065082A01D0202A01D1282C96
:1056F00004D0212C16D04D61BDE8F081C7624A6804
:1057000022F4E0624A6001684D6101680A6822F48F
:1057100080620A60036380F83D6080F83E30FDF7E8
:10572000F3FFE9E7C7622122026380F83D6080F859
:105730003E304A6822F4E0624A6001684D610168C7
:105740000A6822F480620A60FEF779F8D4E7000064
:105750000000FFFFF8B590F83D600446006841681E
:1057600021F4E061416020680025416900910168F1
:1057700041F0010101602068016821F4806101604D
:1057800020684168090520D5474F222E48D02A2E8F
:1057900046D0616B096849686185618D19B1216CDA
:1057A00041F004012164416821F400614160606BB3
:1057B000FCF7AFFD012808D0606B0765606BFCF754
:1057C00096FD10B1606B016D8847608D08B320684D
:1057D0004169C943490708D40069616A0870606A71
:1057E000401C6062608D401E608520684169C9432D
:1057F000490608D40069616A0870606A401C6062EA
:10580000608D401E6085608D18B1206C40F00400F2
:105810002064206C00B32046BDE8F840FFF7EABBE7
:10582000A16B096849686185618D19B1216C41F0EE
:1058300004012164416821F400614160A06BFCF720
:1058400068FD0128C1D0A06B0765A06BFCF74FFD78
:105850000028BAD0A06BB6E72A2E06D125632820EF
:1058600084F83D002046FDF7E9FF94F83D10202024
:1058700028290DD0216B222901D0222E07D12563A2
:1058800084F83D0084F83E502046FDF7D7FFF8BD70
:105890000649E162256384F83D0084F83E502046C5
:1058A000FDF732FFF8BD0000394F00080000FFFF90
:1058B00038B504460020009063696A4601212068DB
:1058C00098476FF00405002825DB63696A460121CB
:1058D0002068984700281EDB0098400701D401206B
:1058E00038BD63696A46002120689847002812DBAA
:1058F0000098C10408D44FF4045181431CD08104A2
:105900001CD4C0051CD415E063696A461F212068B9
:105910009847002801DA284638BD0098C10401D410
:10592000062038BDC0F38200062805D0022805D025
:10593000052805D0052038BD022038BD032038BD1C
:10594000042038BD2DE9F8430446002006460546EC
:1059500000906068A8BBA06800B1804720206FF06D
:105960000407206063696A46122130469847002880
:1059700001DA3D4607E0009800F01F00B04202D176
:105980000025266002E0761C1F2EEBD920681F2818
:1059900002D96FF0020530E07DBB23694FF400426D
:1059A00000219847002830DB63696A46002120689F
:1059B0009847002827DBA069804706464FF4FA780D
:1059C0000CE00EE0A0698047801B404518D8636951
:1059D0006A46002120689847002814DB00980004DC
:1059E000F0D4A069804706464FF4FA67A069804763
:1059F000801BB842FAD9012060602846BDE8F883D0
:105A00006FF00105F9E73D46F7E76FF00305F4E7AE
:105A100088B1CA687AB18A686AB10A695AB10A68F3
:105A200082604A68C260CA6842618A680261096924
:105A30008161002070474FF0FF30704770B58CB027
:105A40000024089409940A94202168460B94FAF7DC
:105A5000BFFE23482149012501604FF480310561D3
:105A6000C0E90114057680F820401E49C0E90A14F7
:105A7000C561C46080F830504561FCF73DFA08B15B
:105A800072B6FEE703260896CDE9095408A9144822
:105A9000FCF780F908B172B6FEE7CDE9006512485F
:105AA0000294CDE9060402258DF8154004958DF881
:105AB000144069460A480394FCF78CF808B172B6A2
:105AC000FEE70620CDE9000569460548FCF782F8A7
:105AD000002801D072B6FEE70CB070BD0020014076
